:100000000C94A0000C94C8000C94C8000C94C80078
:100010000C94C8000C94C8000C94C8000C94C80040
:100020000C94C8000C94C8000C94C8000C94C80030
:100030000C94C8000C94C8000C94C8000C94C80020
:100040000C94EF050C94C8000C9436050C94100524
:100050000C94C8000C94C8000C94C8000C94C80000
:100060000C9484060C94C8000000000025002800B1
:100070002B00040404040404040402020202020229
:10008000030303030303010204081020408001025C
:1000900004081020010204081020000000080002DB
:1000A0000100000304070000000000000000466F8C
:1000B000756E6420554E4B4E4F574E2073656E73D0
:1000C0006F7221204572726F722100466F756E64E7
:1000D00020424D503238302073656E736F7221208C
:1000E0004E6F2048756D6964697479206176616925
:1000F0006C61626C652E00466F756E6420424D45E2
:100100003238302073656E736F72212053756363CC
:100110006573732E00436F756C64206E6F74206678
:10012000696E6420424D4532383049324320736550
:100130006E736F7221004C43442E2E2E0000B30EBE
:1001400011241FBECFEFD8E0DEBFCDBF23E0A2ED6C
:10015000B1E001C01D92A839B207E1F711E0A0E0BB
:10016000B1E0E6EFF7E202C005900D92A23DB107C3
:10017000D9F710E0C0EAD0E004C02197FE010E9448
:10018000FC11CF39D107C9F70E949F0B0C94F913CA
:100190000C940000CF92DF92EF92FF920F931F9387
:1001A000CF93DF936C017A018B01C0E0D0E0CE15D4
:1001B000DF0581F0D8016D918D01D601ED91FC91A3
:1001C0000190F081E02DC6010995892B11F021964F
:1001D000EECF7E01C701DF91CF911F910F91FF906C
:1001E000EF90DF90CF900895FC01538D448D252F23
:1001F00030E0842F90E0821B930B541710F0CF96C1
:10020000089501970895FC01918D828D981761F0F2
:10021000828DDF01A80FB11D5D968C91928D9F5F3D
:100220009F73928F90E008958FEF9FEF0895FC01E8
:10023000918D828D981731F0828DE80FF11D858D9B
:1002400090E008958FEF9FEF0895FC01918D228D2E
:10025000892F90E0805C9F4F821B91098F739927B3
:10026000089589EE92E00E94250121E0892B09F48E
:1002700020E0822F0895FC01848DDF01A80FB11DBD
:10028000A35ABF4F2C91848D90E001968F739927CC
:10029000848FA689B7892C93A089B1898C918370AA
:1002A00080648C93938D848D981306C00288F389A3
:1002B000E02D80818F7D80830895EF92FF920F93D0
:1002C0001F93CF93DF93EC0181E0888F9B8D8C8D02
:1002D000981305C0E889F989808185FD26C0F62E2E
:1002E0000B8D10E00F5F1F4F0F731127E02E8C8DC9
:1002F000E8120CC00FB607FCFACFE889F9898081B3
:1003000085FFF5CFCE010E943B01F1CF8B8DFE0121
:10031000E80FF11DE35AFF4FF0829FB7F8940B8F5F
:10032000EA89FB89808180620AC09FB7F894EE89D0
:10033000FF896083E889F989808183708064808384
:100340009FBF81E090E0DF91CF911F910F91FF90CF
:10035000EF900895CF93DF93EC01888D8823C9F047
:10036000EA89FB89808185FD05C0A889B9898C91BE
:1003700086FD0FC00FB607FCF5CF808185FFF2CF59
:10038000A889B9898C9185FFEDCFCE010E943B01F0
:10039000E7CFDF91CF91089580E090E0892B29F09D
:1003A0000E94310181110C94000008953FB7F89428
:1003B00080913A0290913B02A0913C02B0913D02A3
:1003C00026B5A89B05C02F3F19F00196A11DB11DB0
:1003D0003FBFBA2FA92F982F8827820F911DA11DEB
:1003E000B11DBC01CD0142E0660F771F881F991F28
:1003F0004A95D1F7089585ED8093BC008091BC00AB
:1004000084FDFCCF10926A02089540911202262FBB
:1004100030E0240F311D21323105DCF420916A02D5
:100420002430C9F4FC0180E090E0861758F4309144
:1004300012022191DC01AE50BE4FA30FB11D2C93CF
:100440000196F3CF80911202680F6093120280E050
:10045000089581E0089582E008950895089508952B
:10046000E091430280914202E81730F4F0E0EE524E
:10047000FE4F808190E008958FEF9FEF0895909157
:10048000430280914202981750F4E92FF0E0EE52B7
:10049000FE4F208130E09F5F9093430202C02FEF18
:1004A0003FEFC90108958091420290E020914302FC
:1004B000821B91090895CF92DF92EF92FF920F93E2
:1004C0001F93CF93DF937C01CB018A0120916B02B4
:1004D000222389F0EB016B01C40ED51ECC15DD057E
:1004E00069F06991D701ED91FC910190F081E02DC7
:1004F000C7010995F3CF642F0E940502C801DF915F
:10050000CF911F910F91FF90EF90DF90CF900895C2
:10051000CF93DF931F92CDB7DEB7698320916B0233
:100520002223D1F020918E02203240F021E030E0F1
:10053000FC013383228380E090E015C080916C023F
:10054000E82FF0E0E359FD4F998190838F5F80930E
:100550006C0280938E0205C061E0CE0101960E947C
:10056000050281E090E00F90DF91CF910895DC01CA
:100570001C968D919C911D97DC01ED91FC91019051
:10058000F081E02D0994DC011C968D919C911D97C2
:10059000DC01ED91FC910284F385E02D0994DC01EE
:1005A0001C968D919C911D97DC01ED91FC9104842A
:1005B000F585E02D0994DC011C968D919C911D9789
:1005C000DC01ED91FC910680F781E02D0994DC01BE
:1005D0001C968D919C911D97DC01ED91FC910084FE
:1005E000F185E02D0994089580E090E0089561156B
:1005F000710579F0FB0101900020E9F73197AF0117
:10060000461B570BDC01ED91FC910280F381E02D3C
:10061000099480E090E00895CF92DF92EF92FF92EC
:100620000F931F93CF937C018A01C22FFC0184A9F1
:1006300091E090936B0280938D0210926C02109265
:100640008E028FE892E00E94880281E00E94870873
:1006500080916A028111FCCFF70194A98C2FC132DD
:1006600008F080E221E020936A02209369023FEFC4
:100670003093680210926702380F3093660220931D
:10068000450220914502990F922B9093450290913B
:100690004402913061F4109244029091450290938B
:1006A000BB009091BC0093FDF8CF95EC01C095EE96
:1006B0009093BC0090916A029130E1F390916702AF
:1006C000981710F480916702A6E4B2E0E2EDF1E041
:1006D00090E0981721F02D9121939F5FFACF10920F
:1006E00043029093420290E02091420280914302A3
:1006F000281771F0FF24F394F90E6801C90ED11C7C
:100700008FE892E00E943F02F60180839F2DECCF9C
:1007100081E09C1380E0CF911F910F91FF90EF90AB
:10072000DF90CF900895CF93C42FFC0184A991E06E
:1007300090936B0280938D0210926C0210928E0245
:100740008FE892E00E9488026C2F8FE892E00E946E
:10075000880281E00E94870881E0CF9108950F937D
:100760001F93CF93DF93EC0188819981009729F043
:100770002A813B812617370788F48B016F5F7F4FF3
:100780000E942313009761F0998388831B830A8357
:100790002C813D81232B11F4FC01108281E001C0EA
:1007A00080E0DF91CF911F910F910895CF93DF9358
:1007B000EC0188819981009711F00E949A121982A8
:1007C00018821D821C821B821A82DF91CF910895AC
:1007D000DC01ED91FC910190F081E02D09942F92C4
:1007E0003F924F925F926F927F928F929F92AF92C1
:1007F000BF92CF92DF92EF92FF920F931F93CF930E
:10080000DF93CDB7DEB7A2970FB6F894DEBF0FBE69
:10081000CDBF6C014A015B01F22E9A01AB01C5010B
:10082000B4010E94BD11882319F06AE571E027C068
:1008300024013501E89477F82FEF3FEF4FE75FE7AA
:10084000C301B2010E94BD1181110DC02FEF3FEF16
:100850004FE75FE7C301B2010E94350F18161CF481
:100860006EE571E00CC02FEF3FEF4FE75FE4C5018D
:10087000B4010E94B811181634F462E671E0C601A2
:100880000E94F702B2C02FEF3FEF4FE75FECC501C8
:10089000B4010E94350F87FDF0CF20E030E0A901C0
:1008A000C501B4010E94350F87FF0AC06DE2C60181
:1008B0000E94E8031C01B7FAB094B7F8B09402C0E4
:1008C000212C312C10E060E070E080E09FE3F11615
:1008D00041F020E030E040E251E40E9417111F5F38
:1008E000F6CFA50194010E94AB104B015C010E9460
:1008F0008911562E672E782EE92E19A2262F372F12
:10090000482F592F8E010F5D1F4F0AA3412ECA0198
:10091000B9012AE030E040E050E00E94D211605D71
:10092000F80162938F01211531054105510579F7D1
:10093000BF01C6010E94F7028101080F191FFF20A5
:1009400009F452C0652D762D872D9E2D0E943A0FF9
:100950009B01AC01C501B4010E94AA104B015C01CE
:100960006EE2C6010E94E803080F191F20E030E084
:1009700040E251E4C501B4010E949B0F4B015C01B0
:100980000E9489119B0140E050E019A22AA0342C5A
:10099000562E632E742EE52ECA01B9012AE030E0EE
:1009A00040E050E00E94D211605DF10162931F01AE
:1009B000211531054105510579F7BF01C6010E9496
:1009C000F702080F191F652D762D872D9E2D0E9489
:1009D0003A0F9B01AC01C501B4010E94AA104B0162
:1009E0005C01FA94F110C2CFC801A2960FB6F89438
:1009F000DEBF0FBECDBFDF91CF911F910F91FF9052
:100A0000EF90DF90CF90BF90AF909F908F907F90AE
:100A10006F905F904F903F902F9008950C94F70245
:100A20001F920F920FB60F9211242F933F934F9363
:100A30005F936F937F938F939F93AF93BF93EF9346
:100A4000FF9389EE92E00E943B01FF91EF91BF91ED
:100A5000AF919F918F917F916F915F914F913F9156
:100A60002F910F900FBE0F901F9018951F920F920D
:100A70000FB60F9211242F938F939F93EF93FF93B1
:100A8000E091F902F091FA028081E091FF02F09189
:100A9000000382FD12C09081809102038F5F8F73EB
:100AA00020910303821751F0E0910203F0E0E75137
:100AB000FD4F958F8093020301C08081FF91EF91DC
:100AC0009F918F912F910F900FBE0F901F901895AF
:100AD00090E0FC01E656FF4F2491FC01EA57FF4FDE
:100AE0003491FC01EE58FF4FE491EE2309F43CC031
:100AF000222339F1233091F038F42130A9F022304B
:100B000001F584B58F7D12C0273091F02830A1F017
:100B10002430B9F4809180008F7D03C080918000E3
:100B20008F77809380000DC084B58F7784BD09C016
:100B30008091B0008F7703C08091B0008F7D80934B
:100B4000B000F0E0EE0FFF1FE859FF4FA591B49100
:100B50009FB7F894611104C08C913095382302C07E
:100B6000EC913E2B3C939FBF08958F929F92AF9242
:100B7000BF92CF92DF92EF92FF926B017C010E94B5
:100B8000D6014B015C01C114D104E104F104F1F080
:100B90000E94D601DC01CB0188199909AA09BB0979
:100BA000883E9340A105B10570F321E0C21AD10837
:100BB000E108F10888EE880E83E0981EA11CB11CA4
:100BC000C114D104E104F10419F7DDCFFF90EF90D7
:100BD000DF90CF90BF90AF909F908F9008951F921D
:100BE0000F920FB60F9211242F933F938F939F93E1
:100BF000AF93BF938091360290913702A091380253
:100C0000B09139023091350223E0230F2D3720F4C3
:100C10000196A11DB11D05C026E8230F0296A11D56
:100C2000B11D209335028093360290933702A09332
:100C30003802B093390280913A0290913B02A09120
:100C40003C02B0913D020196A11DB11D80933A0274
:100C500090933B02A0933C02B0933D02BF91AF91B1
:100C60009F918F913F912F910F900FBE0F901F90EA
:100C700018956295607F4111616021116460FC01EB
:100C8000258121116860FC01848191E090936B02C1
:100C900080938D0210926C0210928E028FE892E087
:100CA0000E94880281E00C9487080F931F93CF93D2
:100CB000DF93EC01162F042F21E00E94390620E07B
:100CC000402F612FCE010E9439068FE890E00197F6
:100CD000F1F7DF91CF911F910F9108950F931F931B
:100CE000CF938C01C62F62956F7041E00E9455062C
:100CF0006C2F6F7041E0C8010E94550681E090E0C2
:100D0000CF911F910F9108951F920F920FB60F92DE
:100D100011242F933F934F935F936F937F938F9300
:100D20009F93AF93BF93EF93FF938091B900887F18
:100D3000803609F49CC068F5883209F45BC090F4F1
:100D4000803109F454C038F4882309F4F6C088309F
:100D500009F44DC0F6C0883109F44CC0803209F462
:100D60005DC0EFC0803409F468C048F4803309F4F2
:100D700055C0883309F0E5C080936802D8C080353B
:100D800009F44FC0883509F45DC0883409F0D9C032
:100D9000D6C0883909F4C7C0A8F4883709F467C0F9
:100DA00038F4883609F463C0803709F460C0C9C0DC
:100DB000883809F4B8C0803909F45FC0803809F078
:100DC000C0C05BC0803B09F486C038F4803A09F4A7
:100DD00066C0883A09F47FC0B4C0803C09F4A7C05B
:100DE000883C09F4A4C0883B09F48AC0AAC0809159
:100DF000450210C09091670280916602981770F5C5
:100E0000E091670281E08E0F80936702F0E0EA5B79
:100E1000FD4F80818093BB0085EC86C08093680283
:100E20008EC0E091670281E08E0F8093670280910F
:100E3000BB00F0E0EA5BFD4F8083909167028091F8
:100E400066026EC0E091670281E08E0F80936702B8
:100E50008091BB00F0E0EA5BFD4F808380916902E6
:100E600081116DC081E08093440284EA61C083E017
:100E700080936A0210923402CFCF80913402803284
:100E800008F051C0E091340281E08E0F809334026B
:100E90008091BB00F0E0EC5EFD4F8083BDCF85EC20
:100EA0008093BC0010926A0280913402803230F448
:100EB000E0913402F0E0EC5EFD4F1082609134026C
:100EC00070E0E0913E02F0913F0284E192E00995EA
:100ED0001092340236C084E080936A0210921302AA
:100EE00010921202E0914002F09141020995809126
:100EF0001202811105C081E0809312021092F2016A
:100F0000E091130281E08E0F80931302F0E0EE5027
:100F1000FE4F80818093BB0090911302809112025A
:100F2000981708F479CF85E88093BC000AC085EC57
:100F30008093BC0010926A0204C0109268020E9462
:100F4000FB01FF91EF91BF91AF919F918F917F91A5
:100F50006F915F914F913F912F910F900FBE0F9026
:100F60001F9018950F931F93CF93DF93EC018A8105
:100F7000982F9295990F907E8E81880F880F892BDC
:100F80000885082B8A85982F9295990F907E8C85DD
:100F9000880F880F892B1E85182BE881F981028024
:100FA000F381E02D4C8162EFCE010995E881F98152
:100FB0000280F381E02D402F64EFCE010995E88196
:100FC000F9810280F381E02D412F65EFCE01DF91A1
:100FD000CF911F910F910994FF920F931F93CF937D
:100FE000DF931F92CDB7DEB78C01DC01ED91FC9150
:100FF0000480F581E02D21E0AE014F5F5F4F60ED91
:1010000009958981883541F0803671F420E630E019
:10101000F80132AB21AB0DC028E530E0D801D29603
:101020003C932E93D19705C0F80112AA11AAF12C76
:101030003EC0D801D0968C93D097ED91FC9104805E
:10104000F581E02D26E0A801405F5F4F68E8C80108
:101050000995F82ED801ED91FC910480F581E02DE1
:1010600022E1A8014A5E5F4F6EE8C8010995F822A7
:10107000D801ED91FC910480F581E02D21E0A801DB
:10108000485D5F4F61EAC8010995F822D801ED91EA
:10109000FC910480F581E02D27E0A801475D5F4FBA
:1010A00061EEC8010995F822C8010E94B207F80153
:1010B000F3AA8F2D0F90DF91CF911F910F91FF9089
:1010C0000895CF93DF93EC0166E671E08881998102
:1010D0000E94F702688179818A819B81DF91CF919B
:1010E0000895CF93DF93EC01FE016491611107C075
:1010F00066E873E08AE092E0DF91CF91089586E898
:1011000093E00E94B7022196892B71F7F1CF282F27
:1011100030918E02313208F04AC080916A0281110A
:10112000FCCF90918D0242E040936A0220936902C5
:101130002FEF209368021092670230936602EDE66B
:10114000F2E0A6E4B2E020E0321721F041914D93A5
:101150002F5FFACF1092450220914502990F922BF2
:101160009093450290914402913061F410924402B0
:10117000909145029093BB009091BC0093FDF8CFF5
:1011800095EC01C095EE9093BC0090916A0292306C
:10119000E1F3909168029F3F79F08091680280327C
:1011A00041F080916802803331F084E005C081E035
:1011B00003C082E001C083E010926C0210928E02A4
:1011C00010926B020895CF93C82F682F62956F70AD
:1011D00040E08FED92E00E9455066C2F6F7040E06A
:1011E0008FED92E0CF910C94550681E00E94E308C8
:1011F0008BE39FE10197F1F7089582E00E94E308F5
:101200008BE39FE10197F1F708951092430210924A
:10121000420210926C0210928E0210926A0281E0D9
:10122000809369021092440261E082E10E946805A5
:1012300061E083E10E946805E9EBF0E080818E7F48
:10124000808380818D7F808388E48093B80085E4EB
:101250008093BC008DE292E0909341028093400223
:101260008EE292E090933F0280933E0208954F9267
:101270005F926F927F928F929F92AF92BF92CF9226
:10128000DF92EF92FF92E091C80249015A01FCE21D
:101290009F1AF1E0AF0AB1086B017C013EE0CC0C73
:1012A000DD1CEE1CFF1C3A95D1F78091C70220E1AE
:1012B000829FC00111242E2F2F70822B092E000C2B
:1012C000AA0BBB0B44E1880F991FAA1FBB1F4A95AD
:1012D000D1F7C81AD90AEA0AFB0AA091C90230E17B
:1012E000A39FD00111248E2F82958F70A82BA5016A
:1012F00094010E94F411C61AD70AE80AF90A40E4D8
:10130000D40EE11CF11C5FE0F594E794D794C794E8
:101310005A95D1F7A091C602B0E0A50194010E94B0
:1013200059102B013C016BE07594679457944794D6
:101330006A95D1F750E8550E611C711CA091CA0244
:101340000A2E000CBB0BA50194010E94F411EAE0E7
:101350009595879577956795EA95D1F7A3019201C1
:101360000E94C211DC01CB01FAE0B595A7959795D3
:101370008795FA95D1F79C01AD01405E5F4FA09132
:10138000C402B091C5020E94F411DC01CB01905E51
:10139000AF4FBF4FBC01CD01AEE0959587957795D6
:1013A0006795AA95D1F7A70196010E94C2116B011A
:1013B0007C01BFE09595879577956795BA95D1F7AC
:1013C0009B01AC010E94C2119B01AC0187E05595C5
:1013D0004795379527958A95D1F7A091C302B0E03C
:1013E0000E945910DC01CB0124E0B595A795979593
:1013F00087952A95D1F7A7019601281B390B4A0B2F
:101400005B0BDA01C90157FF03C080E090E0DC010B
:1014100081309105A10539E1B30724F080E090E027
:10142000A0E0B9E1BC01CD012CE0959587957795B9
:1014300067952A95D1F70E943A0F20E030E040E806
:101440005AE30E949B0FFF90EF90DF90CF90BF90E8
:10145000AF909F908F907F906F905F904F90089586
:101460008F929F92AF92BF92CF92DF92EF92FF92B4
:10147000CF93DF93EA01F901C090AB02D090AC02A8
:10148000E12CF12C4B015C0124E0B594A7949794D6
:1014900087942A95D1F78C189D08AE08BF08DC0107
:1014A000CB0133E0B595A795979587953A95D1F7F8
:1014B000CC0CDD1CEE1CFF1C9C01AD012C193D0960
:1014C0004E095F09A091AD02B091AE020E94F411E5
:1014D0006B017C015BE0F594E794D794C7945A952F
:1014E000D1F7A5019401C501B4010E94C2119B016D
:1014F000AC016CE055954795379527956A95D1F7DE
:10150000A091AF02B091B0020E94F411DC01CB01B6
:101510007EE0B595A795979587957A95D1F7A70120
:101520009601280F391F4A1F5B1F288339834A837E
:101530005B83A5E0B0E00E945910DC01CB0180582C
:101540009F4FAF4FBF4F692F7A2F8B2F992787FD62
:101550009A95EF2B49F40E943C0F20E030E048ECD4
:1015600052E40E9417111AC00E943C0F20E030E0A4
:1015700048EC52E40E94171120E030E040E151E4D1
:101580000E949B0F20E030E040EA50E40E941711D7
:1015900020E030E040E052E40E94AB10DF91CF91B8
:1015A000FF90EF90DF90CF90BF90AF909F908F9083
:1015B00008950F931F93CF93DF93CDB7DEB728978E
:1015C0000FB6F894DEBF0FBECDBF8C018091A30291
:1015D0009091A402019721F48BE992E00E94B20756
:1015E00028E0AE014F5F5F4F67EF8BE992E00E940A
:1015F0000C03DE011196F8019801205E3F4F4D91DA
:1016000050E060E070E04193519361937193E21771
:10161000F307A9F728960FB6F894DEBF0FBECDBF2B
:10162000DF91CF911F910F910895CF93DF93CDB7A5
:10163000DEB728970FB6F894DEBF0FBECDBF98E097
:10164000E6E0F1E0DE01119601900D929A95E1F746
:101650009091E802691710F06FEF690FFE01319663
:10166000E60FF11DE60FF11D9081890F8068289625
:101670000FB6F894DEBF0FBECDBFDF91CF910C94B3
:10168000E308CF92DF92EF92FF920F931F93CF93D5
:10169000DF93CDB7DEB7A4970FB6F894DEBF0FBEC9
:1016A000CDBF8C01CE0101960E94D90A8823A1F1F9
:1016B0004D855E856F8578898CE0440F551F661FC8
:1016C000771F8A95D1F789899A89AB89BC8924E0EB
:1016D000880F991FAA1FBB1F2A95D1F7482B592B9A
:1016E0006A2B7B2B8D899E89AF89B88D34E0B595A7
:1016F000A795979587953A95D1F76A017B01C82AF6
:10170000D92AEA2AFB2AC701B6019801AE014F5D2A
:101710005F4F0E94300A04C060E070E080EC9FE7F9
:10172000A4960FB6F894DEBF0FBECDBFDF91CF9168
:101730001F910F91FF90EF90DF90CF900895CF937E
:10174000DF93CDB7DEB7A6970FB6F894DEBF0FBE16
:10175000CDBF789484B5826084BD84B5816084BD3A
:1017600085B5826085BD85B5816085BD80916E003F
:10177000816080936E001092810080918100826070
:1017800080938100809181008160809381008091AD
:1017900080008160809380008091B100846080939C
:1017A000B1008091B00081608093B00080917A0098
:1017B000846080937A0080917A00826080937A00BE
:1017C00080917A00816080937A0080917A008068AD
:1017D00080937A001092C100E091F902F091FA0230
:1017E00052E0D52ED082E091F502F091F6021082FF
:1017F000E091F702F091F80280E1808310920103FA
:10180000E091FD02F091FE0286E08083E091FB0210
:10181000F091FC02808180618083E091FB02F09175
:10182000FC02808188608083E091FB02F091FC02E1
:10183000808180688083E091FB02F091FC028081CE
:101840008F7D808386E391E00E94710869837A83AB
:101850008B839C838E010F5F1F4FC8010E9461081C
:10186000D092E80288E08093E5020E94050920E01A
:1018700040E060E08FED92E00E9439068BE39DE04E
:101880000197F1F740E063E08FED92E00E9455068A
:101890006BE4E62E66E4F62EC7010197F1F740E00F
:1018A00063E08FED92E00E945506C7010197F1F7C2
:1018B00040E063E08FED92E00E94550683E592E000
:1018C0000197F1F740E062E08FED92E00E9455064B
:1018D0008091E50280620E94E30884E08093E60242
:1018E0008CE00E94E3080E94F508D092E70286E0AF
:1018F0000E94E30886E98093E40220E041E060E092
:101900008FED92E00E9439068091E6028E7F8093EF
:10191000E60288600E94E3088091E6028D7F809352
:10192000E60288600E94E3080E94F5080E94FD0814
:101930000E9405098BE992E00E94EC079091CE028B
:10194000992311F081111CC085E191E00E9471087A
:1019500069837A838B839C83C8010E9461080E94FB
:10196000FD080E94F50869E671E08FED92E00E94A3
:101970000E056CED75E080E090E00E94B505DACFD1
:101980008091CC029091CD0288359105A9F08036E6
:10199000910521F587EF90E00E94710869837A83B1
:1019A0008B839C83C8010E9461080E94FD080E94ED
:1019B000F5086AE771E023C08BEC90E00E947108A3
:1019C00069837A838B839C83C8010E9461080E948B
:1019D000FD080E94F50868E871E011C08EEA90E009
:1019E0000E94710869837A838B839C83C8010E945B
:1019F00061080E94FD080E94F50866E971E08FED1C
:101A000092E00E940E058EE0E0EDF2E0ADE9B2E07A
:101A100001900D928A95E1F78BE992E00E94B2075E
:101A200068EE73E080E090E00E94B50546E4342E55
:101A3000C8010E94D90A811109C0412C512C30ECF7
:101A4000632E3FE7732E7301620150C0898C9A8C1C
:101A5000AB8CBC8CBA2CA92C982C88248D8D9E8D97
:101A6000AF8DB8A1882A992AAA2ABB2A4D855E85FE
:101A70006F857889ECE0440F551F661F771FEA9544
:101A8000D1F789899A89AB89BC89F4E0880F991FBD
:101A9000AA1FBB1FFA95D1F7482B592B6A2B7B2B1A
:101AA0008D899E89AF89B88D24E0B595A7959795C6
:101AB00087952A95D1F76A017B01C82AD92AEA2A93
:101AC000FB2AC701B60121E030E0AE014F5D5F4F58
:101AD0000E94300A6B017C0129A13AA14BA15CA1B3
:101AE000C501B4010E9437092B013C016CEA71E089
:101AF00089EE92E00E940E0522E0B701A60189EE70
:101B000092E00E94EF031AA219A21CA21BA21EA21D
:101B10001DA239821A82F80101900020E9F731975D
:101B20007F01E01AF10AB701CE0181960E94AF034E
:101B3000811105C0CE0181960E94D60307C0FEA286
:101B4000EDA2B80189A19AA10E94F2131A8219820A
:101B50001C821B821E821D8262E070E0C8010E940E
:101B6000AF03811104C0C8010E94D6030AC082E0FD
:101B700090E09E838D8363EB71E089819A810E945E
:101B8000F2138DA19EA1A9A0BAA0A114B10409F4D9
:101B9000E6C00097B1F0ED80FE80E80EF91EB701B7
:101BA000C8010E94AF03882309F4D9C029813A8172
:101BB0008D819E81B501820F931F0E94F213FE82D8
:101BC000ED824D815E8169817A8189EE92E00E9489
:101BD000CA0089819A810E949A1289A19AA10E94C1
:101BE0009A1266EB71E089EE92E00E940E0522E007
:101BF000B301A20189EE92E00E94EF0363EC71E071
:101C000089EE92E00E940E0560E080E00E94150BD4
:101C100081E090E00E94410BAB01BC0122E08FED1E
:101C200092E00E94EF036FED8FED92E00E94E803D7
:101C300068EC71E08FED92E00E940E0560E088E0B4
:101C40000E94150B80E090E00E94410BAB01BC01AB
:101C500022E08FED92E00E94EF036FED8FED92E0B6
:101C60000E94E8036AEC71E08FED92E00E940E059D
:101C700061E080E00E94150BC8010E94D90A882308
:101C800009F44FC0898C9A8CAB8CBC8CBA2CA92CD3
:101C9000982C88248D8D9E8DAF8DB8A1882A992A85
:101CA000AA2ABB2A4D855E856F8578899CE0440F02
:101CB000551F661F771F9A95D1F789899A89AB8935
:101CC000BC8924E0880F991FAA1FBB1F2A95D1F752
:101CD000482B592B6A2B7B2B8D899E89AF89B88D18
:101CE00034E0B595A795979587953A95D1F76A0110
:101CF0007B01C82AD92AEA2AFB2AC701B60120E0BB
:101D000030E0AE014F5D5F4F0E94300A29A13AA139
:101D10004BA15CA1C501B4010E943709AB01BC0114
:101D200004C040E050E060EC7FE722E08FED92E0FD
:101D30000E94EF036CEC71E08FED92E00E940E05C3
:101D400064EF71E080E090E00E94B50564EF71E01F
:101D500080E090E00E94B5050E94CC0169CEC801E8
:101D60000E94D6032ECFE9EEF2E01382128248EEF3
:101D700053E060E070E0448355836683778382E1BB
:101D800091E09183808385EC90E09587848784EC53
:101D900090E09787868780EC90E0918B808B81EC38
:101DA00090E0938B828B82EC90E0958B848B86EC19
:101DB00090E0978B868B118E128E138E148EAFE867
:101DC000B2E013961C921E92129714964D935D9357
:101DD0006D937C93179784E291E08D939C93A6E892
:101DE000B3E013961C921E92129714964D935D9336
:101DF0006D937C9317978CE491E011969C938E934E
:101E00001D96FC93EE931C97EFEDF2E01382128285
:101E100080E491E0918380838FE384831582E0EDF9
:101E2000F2E081E090E09183808393838283158246
:101E300014829783868385E090E09187808713865C
:101E400012861586148686E786879EE0ADE9B2E0A5
:101E500001900D929A95E1F7EBE9F2E013AA26E3DF
:101E600031E03183208384AB08950E94770F08F41A
:101E700081E00895E89409C097FB3EF49095809521
:101E8000709561957F4F8F4F9F4F9923A9F0F92F40
:101E900096E9BB279395F695879577956795B795BE
:101EA000F111F8CFFAF4BB0F11F460FF1BC06F5FA4
:101EB0007F4F8F4F9F4F16C0882311F096E911C0B6
:101EC000772321F09EE8872F762F05C0662371F0D7
:101ED00096E8862F70E060E02AF09A95660F771FEB
:101EE000881FDAF7880F9695879597F90895990FC7
:101EF0000008550FAA0BE0E8FEEF16161706E807D4
:101F0000F907C0F012161306E407F50798F0621BF4
:101F1000730B840B950B39F40A2661F0232B242BC9
:101F2000252B21F408950A2609F4A140A6958FEFE8
:101F3000811D811D08950E94AE0F0C941F100E94F8
:101F4000111038F00E94181020F0952311F00C9415
:101F500008100C940E1011240C9453100E94301091
:101F600070F3959FC1F3950F50E0551F629FF001EC
:101F7000729FBB27F00DB11D639FAA27F00DB11D05
:101F8000AA1F649F6627B00DA11D661F829F22278E
:101F9000B00DA11D621F739FB00DA11D621F839F15
:101FA000A00D611D221F749F3327A00D611D231FEB
:101FB000849F600D211D822F762F6A2F11249F5739
:101FC00050409AF0F1F088234AF0EE0FFF1FBB1F3C
:101FD000661F771F881F91505040A9F79E3F5105FB
:101FE00080F00C9408100C9453105F3FE4F3983E7B
:101FF000D4F3869577956795B795F795E7959F5FA5
:10200000C1F7FE2B880F911D9695879597F9089536
:1020100097F99F6780E870E060E008959FEF80EC9B
:10202000089500240A94161617061806090608953E
:1020300000240A9412161306140605060895092EA4
:102040000394000C11F4882352F0BB0F40F4BF2B13
:1020500011F460FF04C06F5F7F4F8F4F9F4F089553
:1020600057FD9058440F551F59F05F3F71F0479549
:10207000880F97FB991F61F09F3F79F0879508952E
:10208000121613061406551FF2CF4695F1DF08C04D
:10209000161617061806991FF1CF8695710561056A
:1020A00008940895E894BB2766277727CB0197F912
:1020B00008950E949B10A59F900DB49F900DA49F22
:1020C000800D911D112408952F923F924F925F929F
:1020D0006F927F928F929F92AF92BF92CF92DF9238
:1020E000EF92FF920F931F93CF93DF93CDB7DEB79D
:1020F000CA1BDB0B0FB6F894DEBF0FBECDBF099431
:102100002A88398848885F846E847D848C849B8487
:10211000AA84B984C884DF80EE80FD800C811B8195
:10212000AA81B981CE0FD11D0FB6F894DEBF0FBEC4
:10213000CDBFED010895A29FB001B39FC001A39F41
:10214000700D811D1124911DB29F700D811D1124F0
:10215000911D08955058BB27AA270E94C2100C94C5
:102160001F100E94111038F00E94181020F039F44E
:102170009F3F19F426F40C940E100EF4E095E7FB43
:102180000C940810E92F0E94301058F3BA17620718
:1021900073078407950720F079F4A6F50C94521084
:1021A0000EF4E0950B2EBA2FA02D0B01B901900172
:1021B0000C01CA01A0011124FF27591B99F0593FB6
:1021C00050F4503E68F11A16F040A22F232F342FFE
:1021D0004427585FF3CF469537952795A795F0404C
:1021E0005395C9F77EF41F16BA0B620B730B840B61
:1021F000BAF09150A1F0FF0FBB1F661F771F881F19
:10220000C2F70EC0BA0F621F731F841F48F4879570
:1022100077956795B795F7959E3F08F0B0CF939562
:10222000880F08F09927EE0F9795879508950E94DB
:102230002B110C941F100E94181058F00E941110BE
:1022400040F029F45F3F29F00C94081051110C94D0
:1022500053100C940E100E94301068F39923B1F3C0
:10226000552391F3951B550BBB27AA2762177307BC
:10227000840738F09F5F5F4F220F331F441FAA1F50
:10228000A9F335D00E2E3AF0E0E832D0915050400C
:10229000E695001CCAF72BD0FE2F29D0660F771FBA
:1022A000881FBB1F261737074807AB07B0E809F0A0
:1022B000BB0B802DBF01FF2793585F4F3AF09E3F25
:1022C000510578F00C9408100C9453105F3FE4F320
:1022D000983ED4F3869577956795B795F7959F5F68
:1022E000C9F7880F911D9695879597F90895E1E0B4
:1022F000660F771F881FBB1F621773078407BA0713
:1023000020F0621B730B840BBA0BEE1F88F7E0956D
:1023100008950E94381088F09F5798F0B92F992798
:10232000B751B0F0E1F0660F771F881F991F1AF0C0
:10233000BA95C9F714C0B13091F00E945210B1E0C3
:1023400008950C945210672F782F8827B85F39F0C2
:10235000B93FCCF3869577956795B395D9F73EF459
:1023600090958095709561957F4F8F4F9F4F089501
:102370000E94770F08F48FEF08950E94770F880B63
:10238000990B0895DB018F939F930E945910BF9181
:10239000AF91A29F800D911DA39F900DB29F900DB4
:1023A00011240895A1E21A2EAA1BBB1BFD010DC02A
:1023B000AA1FBB1FEE1FFF1FA217B307E407F507F5
:1023C00020F0A21BB30BE40BF50B661F771F881FD1
:1023D000991F1A9469F760957095809590959B0167
:1023E000AC01BD01CF010895B7FF0C9459100E94B4
:1023F0005910821B930B0895EE0FFF1F0590F49167
:10240000E02D09940F931F93CF93DF9382309105B2
:1024100010F482E090E0E0919603F091970320E0C1
:1024200030E0A0E0B0E0309719F1408151810281A5
:10243000138148175907C8F08417950769F4109756
:1024400031F012960C93129713961C9327C00093A9
:1024500096031093970322C02115310519F04217F6
:10246000530718F49A01BD01EF01DF01F801DBCF3A
:1024700021153105F9F0281B390B2430310580F482
:102480008A819B816115710521F0FB019383828311
:1024900004C09093970380939603FE01329644C044
:1024A000FE01E20FF31F819391932250310939838A
:1024B00028833AC02091940330919503232B41F453
:1024C00020910201309103013093950320939403EE
:1024D00020910001309101012115310541F42DB702
:1024E0003EB74091040150910501241B350BE0914A
:1024F0009403F0919503E217F307A0F42E1B3F0B12
:102500002817390778F0AC014E5F5F4F2417350765
:1025100048F04E0F5F1F50939503409394038193AF
:10252000919302C0E0E0F0E0CF01DF91CF911F91E5
:102530000F910895CF93DF93009709F481C0FC01B8
:10254000329713821282A0919603B091970310974D
:1025500081F420813181820F931F20919403309167
:1025600095032817390751F5F0939503E0939403E9
:1025700067C0ED0120E030E0CE17DF0740F44A816C
:102580005B819E0141155105F1F0EA01F5CFD3833E
:10259000C28340815181840F951FC817D90759F410
:1025A00088819981840F951F0296918380838A8107
:1025B0009B81938382832115310529F4F09397033E
:1025C000E09396033DC0E901FB83EA834991599169
:1025D000C40FD51FEC17FD0761F480819181840F32
:1025E000951F0296E90199838883828193819B8359
:1025F0008A83E0E0F0E012968D919C91139700970A
:1026000019F0FD01DC01F7CF8D919C9111979D018F
:102610002E5F3F4F820F931F2091940330919503BB
:102620002817390769F4309729F41092970310920C
:10263000960302C013821282B0939503A093940371
:10264000DF91CF910895A0E0B0E0E9E2F3E10C94CE
:102650006810EC01009721F4CB010E940212B4C073
:10266000FC01E60FF71F9C0122503109E217F30726
:1026700008F4A8C0D9010D911C91119706171707EE
:10268000B0F00530110508F49BC0C8010497861707
:10269000970708F495C002501109061B170B019308
:1026A00011936D937C93CF010E949A1289C05B01B4
:1026B000A01AB10A4C01800E911EA0919603B09110
:1026C0009703612C712CE12CF12C109709F446C072
:1026D0008D919C911197A815B905B1F56C0142E057
:1026E000C40ED11CCA14DB0478F14C018A189B0873
:1026F000640142E0C40ED11C1296BC90129713964E
:10270000AC91B5E0CB16D10440F0B282A3839182A4
:102710008082D9016D937C9309C00E5F1F4F800F9B
:10272000911FF90191838083EB2DFA2FE114F104BD
:1027300031F0D7011396FC93EE93129741C0F093BA
:102740009703E09396033CC06816790608F43C01B1
:102750007D0112960D90BC91A02DB7CF809194036E
:102760009091950388169906E1F466167706C8F4E9
:102770008091000190910101009741F48DB79EB7BF
:102780004091040150910501841B950BE817F9074E
:10279000C8F4F0939503E0939403F9017183608387
:1027A0000FC0CB010E9402127C01009759F0A801D2
:1027B000BE010E94E913CE010E949A12C70104C013
:1027C000CE0102C080E090E0CDB7DEB7EEE00C9421
:1027D0008410FB01DC0102C001900D924150504079
:1027E000D8F70895FB01DC0101900D920020E1F77C
:0627F0000895F894FFCFEC
:1027F6000000980380000000400014005400000010
:1028060000005D01CA00F400AA01250103011701B9
:102816000000000088025B02F4022F0253023F020E
:10282600300200000000EC0793030C0300000000D8
:102836006E06CA00F402F30200000000B702CA00E6
:10284600F402DB02E702C302CF026E616E00696E1C
:1028560066006F7666000D0A004E6F2053656E7334
:102866006F7220466F756E642100466F756E642028
:10287600424D453238302100466F756E6420424D18
:10288600503238302100466F756E6420554E4B4EDF
:102896004F574E2073656E736F72210054656D70CD
:1028A6003A2000C2B000090948756D6964697479F7
:1028B6003A20002520524800460043002552482071
:0228C600000010
:00000001FF
